:100000000C9451000C94B4010C946E000C946E008E
:100010000C946E000C946E000C946E000C946E00A8
:100020000C946E000C946E000C946E000C946E0098
:100030000C946E000C946E000C946E000C946E0088
:100040000C946E000C946E000C946E000C946E0078
:100050000C946E00040309041803310032003300CD
:100060006B007500610069002E0063006F006D0079
:100070000E034D006A006F00790031003600120156
:100080001001FF000008C016DC050001010200019C
:100090000902120001010080320904000000000082
:1000A000000011241FBECFE5D4E0DEBFCDBF10E0BD
:1000B000A0E6B0E0E6ECF5E002C005900D92A236B5
:1000C000B107D9F710E0A2E6B0E001C01D92AD384B
:1000D000B107E1F70E947B000C94E1020C94000050
:1000E000FC018181882321F0813019F4939801C0AB
:1000F000939A80E00895CF93DF938B9A2EE088E166
:1001000090E00FB6F894A89581BD0FBE21BD0E9466
:10011000AC00889A20E040E757E1A895CA01019712
:10012000F1F72F5F2A3FC9F788987894CCE2D1E0A5
:10013000A8950E94B300939880E29EE4FE01319757
:10014000F1F70197D9F7939A80E29EE4FE01319787
:10015000F1F70197D9F7ECCF85B7826085BF8BB7F0
:1001600080648BBF08951F93CF93DF9390917300AA
:10017000935097FD88C02091700080916F008D3260
:1001800009F07FC0983009F07CC0CCE0D0E0C21B01
:10019000D109C958DF4F83EC809363008AE58093CF
:1001A0006000109262008881807629F0CE010E9462
:1001B0007000282F5DC09A8110926C00898188237D
:1001C00021F410926D0022E04DC0853019F4909317
:1001D000740047C08630B1F58B81813019F48EE709
:1001E00090E004C0823041F480E990E09093720086
:1001F0008093710022E122C08330F9F48A81882340
:1002000041F484E590E0909372008093710024E0C3
:1002100015C0813041F488E590E09093720080939E
:10022000710028E10BC0823041F480E790E09093A8
:100230007200809371002EE001C020E080E4809382
:10024000620016C0883021F421E086E790E00CC0FF
:10025000893019F49093760004C08A3011F421E0BB
:1002600001C020E08CE690E09093720080937100D2
:100270008F81882321F48E81821708F4282F209300
:100280006100109273008091600084FF46C08091ED
:1002900061008F3F09F441C0182F893008F018E041
:1002A000811B809361008091630098E88927809387
:1002B0006300112321F1209171003091720080912F
:1002C000620086FF0AC0912FF901A4E6B0E0849194
:1002D0008D9331969150D9F708C0912FD901E4E65A
:1002E000F0E08D9181939150E1F7C9010196115091
:1002F000810F911D1F5F909372008093710084E6BF
:1003000090E0612F0E94B001612F6C5F6C3019F09A
:100310008FEF809361006093600094E180B38370FD
:1003200031F49150D9F71092740010926E00DF9161
:10033000CF911F910895A82FB92F80E090E041E060
:1003400050EA609530E009C02D91822797958795F6
:1003500010F084279527305EC8F36F5FA8F30895E7
:10036000EADF8D939D930895CF93CFB7CF93C39535
:10037000809BE9F7809B09C0809B07C0809B05C0DC
:10038000809B03C0809B01C0A1C0DF93C09170001F
:10039000DD27C958DF4F809B02C0DF91EBCF2F9341
:1003A0000F931F9300B32FEF00FB20F94F933F9360
:1003B00010B34FEF012700FB21F93BE031C04E7F26
:1003C000012F10B3216028C0102F4D7F2260000044
:1003D00000B329C04B7F2460012F000010B32BC055
:1003E00010B3477F28602AC04F7E00B320612CC025
:1003F0004F7D10B320622FC04F7B00B3206432C00A
:10040000422700B349934FEF0000102710FB20F95B
:1004100010B31370C9F1297F91F2012700FB21F974
:1004200000B3237F89F2315058F1102710FB22F9D5
:1004300010B3277E79F2012700FB23F92F7C81F28C
:1004400000B3102710FB24F92F7971F200C010B30C
:10045000012700FB25F92F7359F200C000B31027C4
:1004600010FB26F9223040F200C010B3012700FB38
:1004700027F9243028F64F77206810B30000F9CF11
:1004800010E41ABF002717C03B503195C31BD04062
:1004900010E41ABF0881033CE9F00B34D9F0209135
:1004A0006E001981110F1213EDCF093641F10D3293
:1004B00011F0013E39F7009375003F914F911F9164
:1004C0000F912F91DF91CAB7C6FD51CFCF91CFBF0A
:1004D000CF91189520917500222379F31091730024
:1004E000112311F5343012F13093730020936F0013
:1004F000109170003BE0311B3093700017C00091E9
:10050000730001308CF40AE53091600034FD10C0B6
:1005100000936000C3E6D0E00FC02795A8F45150C7
:10052000A9F4220F0000F9CF4AE503C042ED01C053
:10053000432FC4E1D0E032E011B31360909A11BBB5
:1005400002B320E413E05F93012756E002BB279536
:1005500020F4515021F4220FF9CF012756E000007A
:100560003B5A02BBD0F2279528F4515029F4220FB0
:100570000000F9CF012756E0279502BB20F4515027
:1005800021F4220FF9CF012756E02991332302BB32
:1005900021F60C7F10917400110FC651D04002BBA0
:1005A00011F010936E0010E41ABF016011B31C7FAC
:1005B000402F4C7F5F9100C000C002BB11BB42BB0B
:0605C0007CCFF894FFCF90
:0205C6005AFFDA
:00000001FF
