:020000020000FC
:0200000026C018
:040004000C94A709A8
:02003C00189515
:10004C0097C049EC4DBF0E948100BB27DD27FF27DD
:10005C00442442E0442AEE240E94060B0E94180B12
:10006C000E94260B0E94DF0A0E948E0A47E048BBC2
:10007C004FEF45BB48E742BB44274FBB46E846B968
:10008C0040E447B902E00CBF00E002BF09B70260D0
:10009C0009BF0DE003BF0E949E050E94CB004FE0FC
:1000AC0045BF40E44BBF7894809B0DC08230B9F0C3
:1000BC00833089F045FC0E9449068030A9F740FC4A
:1000CC000E94CB00F1CF4FEF8099EECF4A95E1F72C
:1000DC000E948E0AE9CF0E94390D84E0E5CFC0E67C
:1000EC007C2D0E943C0B0E94C00B0E944C0B0E946A
:1000FC005F0C84E0D9CFFCE1EAE3D3E0C5ED42E14B
:10010C00359139934A95E1F7D0E0C4E0CEBBDFBB23
:10011C00E09A0DB30F3F31F0F3E0EDED14E00E94E7
:10012C00C70807C0D0E0C4E0F3E0EDED14E00E9496
:10013C00D208FEE1EEE2D3E0CDEC46E03591399306
:10014C004A95E1F7D0E0C0E0CEBBDFBBE09A0DB33F
:10015C000F3F31F0F3E0EFEC14E00E94C70807C04A
:10016C00D0E0C0E0F3E0EFEC14E00E94D208089578
:10017C005FB64F9340E2442A40E042BF48B742602A
:10018C0048BF4F915FBE1895189540E04BBF44E0B7
:10019C00442A4FEF4D7F4E7F44220091E80310E03C
:1001AC002091A60321FD03C0F0E0E8EE02C0F0E0D0
:1001BC00EFEEE00FF11F0395063008F000E000931E
:1001CC00E80309940DC0F8C0E9C12BC0F5C0E6C125
:1001DC00E5C142C233C390C33FC230C32CC42BC44D
:1001EC0041E04093D10040E033D74093D20041E04E
:1001FC002FD74093D30042E02BD74093D40043E059
:10020C0027D74093D50044E023D74093D60045E050
:10021C001FD74093D70046E01BD74093D80018E077
:10022C0054C442E04093D10047E012D74093D2002F
:10023C0036E0F4E0E2E020E042912083242F3A956E
:10024C00D9F736E0F3E0ECEF20E042912083242F45
:10025C003A95D9F748E0FCD63091FC031091F6039F
:10026C00312B209102042427309523231091020472
:10027C00042F0323102B042F3095032B10231093E2
:10028C000204042F122F242336E0F4E0E2E0429122
:10029C00422B40833A95D9F7212F0095202336E045
:1002AC00F3E0ECEF4291422B40833A95D9F7409121
:1002BC00FC034093D3004091F6034093D40036E006
:1002CC00F3E0E5EF20E042912083242F3A95D9F713
:1002DC0036E0F3E0EFEE20E042912083242F3A95B4
:1002EC00D9F749E0B5D63091EF031091E903312BE2
:1002FC002091F5032427309523231091F503042F27
:10030C000323102B042F3095032B10231093F5038C
:10031C00042F122F242336E0F3E0E5EF4291422B19
:10032C0040833A95D9F7212F0095202336E0F3E04E
:10033C00EFEE4291422B40833A95D9F74091EF036F
:10034C004093D5004091E9034093D6004BE080D612
:10035C00242F42954F70FDE1E6EC30E0E40FF31FE3
:10036C0044914093D700422F3091E7034093E70329
:10037C003095432340FF1BC04091020436E0F4E06B
:10038C00E2E042933A95E9F736E0F3E0E5EF429389
:10039C003A95E9F7409536E0F3E0ECEF42933A9565
:1003AC00E9F736E0F3E0EFEE42933A95E9F740E0F7
:1003BC004093D80017E089C343E04093D10020E07C
:1003CC000E94B00800E00E94B70821E00E94B0082B
:1003DC00F4E0E3E50E9441070093D2001093D300B0
:1003EC0001E00E94B70822E00E94B008F4E0E7E4C4
:1003FC000E944107000F111F000F111F2091D30005
:10040C00202B2093D3001093D40002E00E94B70855
:10041C0023E00E94B008F4E0EFE30E94BE07000F57
:10042C00111F000F111F000F111F000F111F209122
:10043C00D400202B2093D4001093D50003E00E940D
:10044C00B708F4E0E3E30E944107000F111F000F0F
:10045C00111F000F111F000F111F000F111F000F94
:10046C00111F2091D500202B2093D5001093D6007E
:10047C0032E0F4E0EEE020E042912083242F3A9524
:10048C00D9F710910E0432E0F4E0E0E120E0429163
:10049C002083242F3A95D9F740910E04409541239F
:1004AC00342F45753A7A3695432B342F330F432B23
:1004BC00242F32E0F4E0EEE04291422B40833A9557
:1004CC00D9F732E0F4E0EAE020E042912083242FD7
:1004DC003A95D9F710910A0432E0F4E0ECE020E010
:1004EC0042912083242F3A95D9F740910A044095E4
:1004FC004123342F45753A7A3695432B342F330FDD
:10050C00432B242F32E0F4E0EAE04291422B40836B
:10051C003A95D9F740910E04342F45753A7A3695B1
:10052C00432B342F330F342B40910C04342B309548
:10053C00409111044323242F32E0F4E0E0E1429196
:10054C00422B40833A95D9F740E0409311044091F7
:10055C000A04342F45753A7A3695432B342F330FD2
:10056C00342B40910804342B3095409110044323D4
:10057C00242F32E0F4E0ECE04291422B40833A9598
:10058C00D9F740E04093100440910E044093D700FB
:10059C0040910A044093D80018E097C244E040937D
:1005AC00D10024E00E94B00804E00E94B70825E0C6
:1005BC000E94B008F4E0EBE20E94BE070093D20068
:1005CC001093D30005E00E94B70826E00E94B00803
:1005DC00F4E0E3E20E94BE07000F111F000F111F91
:1005EC002091D300202B2093D3001093D40006E04D
:1005FC000E94B70827E00E94B008F4E0EBE10E94EB
:10060C00BE07000F111F000F111F000F111F000F4D
:10061C00111F2091D400202B2093D4001093D500CF
:10062C0007E00E94B708F4E0E3E10E94BE07000F68
:10063C00111F000F111F000F111F000F111F000FB2
:10064C00111F000F111F2091D500202B2093D500D6
:10065C001093D60016E039C241E04093D10020E05F
:10066C000E94B00800E00E94B70821E00E94B00888
:10067C00F4E0E3E50E9441070093D2001093D3000D
:10068C0001E00E94B70822E00E94B008F4E0E7E421
:10069C000E944107000F111F000F111F2091D30062
:1006AC00202B2093D3001093D40002E00E94B708B3
:1006BC0023E00E94B008F4E0EFE30E94BE07000FB5
:1006CC00111F000F111F000F111F000F111F209180
:1006DC00D400202B2093D4001093D50003E00E946B
:1006EC00B708F4E0E3E30E944107000F111F000F6D
:1006FC00111F000F111F000F111F000F111F000FF2
:10070C00111F2091D500202B2093D5001093D600DB
:10071C0032E0F4E0EEE020E042912083242F3A9581
:10072C00D9F710910E0432E0F4E0E0E120E04291C0
:10073C002083242F3A95D9F740910E0440954123FC
:10074C00342F45753A7A3695432B342F330F432B80
:10075C00242F32E0F4E0EEE04291422B40833A95B4
:10076C00D9F732E0F4E0EAE020E042912083242F34
:10077C003A95D9F710910A0432E0F4E0ECE020E06D
:10078C0042912083242F3A95D9F740910A04409541
:10079C004123342F45753A7A3695432B342F330F3A
:1007AC00432B242F32E0F4E0EAE04291422B4083C9
:1007BC003A95D9F740910E04342F45753A7A36950F
:1007CC00432B342F330F342B40910C04342B3095A6
:1007DC00409111044323242F32E0F4E0E0E14291F4
:1007EC00422B40833A95D9F740E040931104409155
:1007FC000A04342F45753A7A3695432B342F330F30
:10080C00342B40910804342B309540911004432331
:10081C00242F32E0F4E0ECE04291422B40833A95F5
:10082C00D9F740E04093100440910E044093D70058
:10083C0040910A044093D80018E047C142E040932D
:10084C00D10024E00E94B00804E00E94B70825E023
:10085C000E94B008F4E0EBE20E94BE070093D200C5
:10086C001093D30005E00E94B70826E00E94B00860
:10087C00F4E0E3E20E94BE07000F111F000F111FEE
:10088C002091D300202B2093D3001093D40006E0AA
:10089C000E94B70827E00E94B008F4E0EBE10E9448
:1008AC00BE07000F111F000F111F000F111F000FAB
:1008BC00111F2091D400202B2093D4001093D5002D
:1008CC0007E00E94B708F4E0E3E10E94BE07000FC6
:1008DC00111F000F111F000F111F000F111F000F10
:1008EC00111F000F111F2091D500202B2093D50034
:1008FC001093D60017E0E9C043E04093D10036E0F6
:10090C00F4E0E2E020E042912083242F3A95D9F7DD
:10091C0036E0F3E0ECEF20E042912083242F3A956F
:10092C00D9F748E095D33091FC031091F603312BA5
:10093C002091020424273095232310910204042FC4
:10094C000323102B042F3095032B10231093020438
:10095C00042F122F242336E0F4E0E2E04291422BE4
:10096C0040833A95D9F7212F0095202336E0F3E008
:10097C00ECEF4291422B40833A95D9F74091FC031E
:10098C004093D2004091F6034093D30036E0F3E05D
:10099C00E5EF20E042912083242F3A95D9F736E0F9
:1009AC00F3E0EFEE20E042912083242F3A95D9F723
:1009BC0049E04ED33091EF031091E903312B209194
:1009CC00F5032427309523231091F503042F0323DB
:1009DC00102B042F3095032B10231093F503042FA9
:1009EC00122F242336E0F3E0E5EF4291422B4083B3
:1009FC003A95D9F7212F0095202336E0F3E0EFEE5E
:100A0C004291422B40833A95D9F74091EF034093A2
:100A1C00D4004091E9034093D50040E019D34093B2
:100A2C00D60041E015D34093D70042E011D3409358
:100A3C00D80018E04AC044E04093D10043E008D30A
:100A4C004093D20044E004D34093D30045E000D35C
:100A5C004093D40046E0FCD24093D50047E0F8D256
:100A6C004093D6004BE0F4D2242F42954F70FDE119
:100A7C00E6EC30E0E40FF31F44914093D700422F93
:100A8C003091E7034093E7033095432340FF1BC0AD
:100A9C004091020436E0F4E0E2E042933A95E9F743
:100AAC0036E0F3E0E5EF42933A95E9F7409536E00E
:100ABC00F3E0ECEF42933A95E9F736E0F3E0EFEE32
:100ACC0042933A95E9F716E000C040E144260E94B3
:100ADC00ED05CFEC72E0710FCF937F930E94E00B8A
:100AEC004095309539934883CA9572E00E94C70BA4
:100AFC007F91CF91739573954D2D4093CC00482DDC
:100B0C004093CB009394CFEC0E944C0B99247093A0
:100B1C00CE008092CD004091CC00D42E4091CB00E1
:100B2C00842E42E0442A4BEF442240E44BBF08950C
:100B3C0040E04093E8034BE08BD24093A603417016
:100B4C004093A703E3980E94AC0508950E944409C2
:100B5C000FEF0093CA0300E00E94B708F4E0E3E54E
:100B6C00D0E0C8E00E94050701E00E94B708F4E05D
:100B7C00E7E4D0E0CCE00E94050703E00E94B70850
:100B8C00F4E0E3E3D0E0C4E10E940507F4E0EFE316
:100B9C00D0E0C0E10E94E906F4E0EBE2D0E0C8E16D
:100BAC000E94E906F4E0E3E2D0E0CCE10E94E90621
:100BBC00F4E0EBE1D0E0C0E20E94E906F4E0E3E10E
:100BCC00D0E0C4E20E94E9060E94690908950E94DF
:100BDC004409F4E0E3E5D0E0C8E00E942B0691F173
:100BEC00F4E0E7E4D0E0CCE00E942B0659F1F4E00D
:100BFC00EFE3D0E0C0E10E942B0621F1F4E0E3E347
:100C0C00D0E0C4E10E942B06E9F0F4E0EBE2D0E086
:100C1C00C8E10E942B06B1F0F4E0E3E2D0E0CCE1B5
:100C2C000E942B0679F0F4E0EBE1D0E0C0E20E94E8
:100C3C002B0641F0F4E0E3E1D0E0C4E20E942B0685
:100C4C0009F000C00E946909089510810181012BEF
:100C5C00B9F021E030E0020F131F1083018331E063
:100C6C0024EF0217130760F000E001830083F8946F
:100C7C009F01329614E00E94D2081894789408953B
:100C8C0098947894089540910704442319F04A9558
:100C9C004093070440910604442319F04A9540936D
:100CAC00060440910504442319F04A954093050429
:100CBC0040910404442319F04A95409304044AE0FB
:100CCC00C7D1342F209112044093120420952A7A14
:100CDC002323322F3695322B4093030420E030FF30
:100CEC000BC040910704442321F0432F4370242B65
:100CFC003C7F4BE44093070432FF0BC04091060449
:100D0C00442321F0432F4C70242B337F4BE440932E
:100D1C00060434FF0BC040910504442321F0432FFB
:100D2C004073242B3F7C4BE44093050436FF0BC0EF
:100D3C0040910404442321F0432F407C242B3F7327
:100D4C004BE440930404122F409103044575242F67
:100D5C00220F20952A7A422B40954323209111048F
:100D6C00309523233095422B40931104312F409121
:100D7C0003044575242F220F20952A7A422B409587
:100D8C00432320911004309523233095422B40931C
:100D9C0010044FED442208950000000000000000F4
:100DAC000000000000000000000000000000000037
:100DBC000000000000000000000000000000000027
:100DCC0043B34095089500E0018300830091A7038D
:100DDC00002359F49F01AE01329614E00E94C7081B
:100DEC00F901EA010481043038F000E00583048342
:100DFC0003E003830FEF02830E941B0808952091E8
:100E0C00A60322FDE0CF1087018700E00183008359
:100E1C000091A703002359F49F01AE01329614E010
:100E2C000E94C708F901EA010481043038F000E09F
:100E3C000583048303E003830FEF02831085018590
:100E4C00328123810217130730F41283038310E0DD
:100E5C0001E010830183348125812017310730F4A0
:100E6C001483058310E001E0108301830E94F507D1
:100E7C000E94080808952091A60322FD79C03281B2
:100E8C0023810217130780F4128303831093C90381
:100E9C000093C80310E001E0108301830E94F50762
:100EAC001091C9030091C8033481258120173107A3
:100EBC0080F4148305831093C9030093C80310E0D6
:100ECC0001E0108301830E9408081091C90300916E
:100EDC00C80330852185021B130B980137FF08C00E
:100EEC006068209530952F5F3F4F5681478103C036
:100EFC006F77528543850E94160E000F111F221F1B
:100F0C00012F122F117067FF05C0009510950F5F10
:100F1C001F4F137008954E7F3281238102171307E0
:100F2C0018F4128303834160348125812017310723
:100F3C0018F414830583416040FF0EC01093C9035D
:100F4C000093C80310E001E0108301830E941B088A
:100F5C001091C9030091C80332812381021B130B2A
:100F6C009801568147810E94160E012F0058089552
:100F7C004E7F328123810217130718F412830383E7
:100F8C004160348125812017310718F414830583BF
:100F9C00416040FF0EC01093C9030093C80310E0DA
:100FAC0001E0108301830E941B081091C90300917A
:100FBC00C80332812381021B130B98015681478190
:100FCC000E94160E000F111F221F000F111F221F4F
:100FDC00012F122F1370005012401370089530859A
:100FEC00218512810381201B310B29F410E001E0D3
:100FFC001683078308951FEF0FEF0E94510D168380
:10100C00078308953481258110850185201B310BC0
:10101C0029F410E001E01287038708951FEF00E721
:10102C000E94510D12870387089534812581128106
:10103C000381201B310B29F410E001E01683078398
:10104C0008951FEF00E80E94510D16830783089541
:10105C00FF93EF93F8E0E6E3E40F40E0F41F09940C
:10106C000BC011C017C01DC023C029C02FC035C074
:10107C003BC041C047C04DC0B89AC0980E94990867
:10108C00C09AB8984DC0B99AC1980E949908C19A53
:10109C00B99846C0BA9AC2980E949908C29ABA984E
:1010AC003FC0BB9AC3980E949908C39ABB9838C09A
:1010BC00BC9AC4980E949908C49ABC9831C0BD9A35
:1010CC00C5980E949908C59ABD982AC0BE9AC69820
:1010DC000E949908C69ABE9823C0BF9AC7980E94CE
:1010EC009908C79ABF981CC08C9A94980E9499082A
:1010FC00949A8C9815C08D9A95980E949908959AF7
:10110C008D980EC08E9A96980E949908969A8E98F1
:10111C0007C08F9A97980E949908979A8F9800C049
:10112C00EF91FF9108950000000000000000000006
:10113C0000000000000000000000000000000000A3
:10114C00000000000000000000000000000043B39D
:10115C004095089527702093CA03206427B9369AC6
:10116C0008951091CA03011721F00770006407B9A4
:10117C00369A3699FECF0FEF0093CA0304B115B11E
:10118C000895E199FECFCEBBDFBBE09A0DB301937E
:10119C0021961A95B1F70895E199FECFCEBBDFBB2E
:1011AC0001910DBBE29AE19A21961A95A9F708953F
:1011BC002092AA033092AB035092AD037092AF030E
:1011CC008092B0039092B103A092B203B092B30399
:1011DC00C092B403D092B503E092B603F092B70379
:1011EC000093B8035093BD036093BE037093BF0389
:1011FC008093C0039093C103A093C203B093C30325
:10120C00C093C403D093C503E093C603F093C70304
:10121C0008952090AA033090AB034090AC035090FB
:10122C00AD036090AE037090AF038090B0039090CC
:10123C00B103A090B203B090B303C090B403D090AC
:10124C00B503E090B603F090B7030091B80350914A
:10125C00BD036091BE037091BF038091C003909158
:10126C00C103A091C203B091C303C091C403D09138
:10127C00C503E091C603F091C7030895E092B6034D
:10128C00F092B7030093B8031093B9032093BA03F9
:10129C003093BB034093BC035093BD036093BE03D8
:1012AC007093BF038093C0039093C103A093C203B8
:1012BC00B093C303C093C403D093C503E093C60398
:1012CC00F093C7030895E090B603F090B703009134
:1012DC00B8031091B9032091BA033091BB0340912C
:1012EC00BC035091BD036091BE037091BF0380910C
:1012FC00C0039091C103A091C203B091C303C091EC
:10130C00C403D091C503E091C603F091C7030895BF
:10131C00739573954D2D4093CC00482D4093CB0085
:10132C009394CFECB3D199247093CE008092CD00DE
:10133C004091CC00D42E4091CB00842E42E0442A24
:10134C0008955FB64F933F932F931F9343E032E082
:10135C00809BFECF819BFECF819B05C043E03A95DD
:10136C000000A9F0F9CF32E04A950000A9F707C0B8
:10137C006F90AF911F912F91CF917F91522D1F9113
:10138C002F913F914F915FBE00E40ABF1895252E17
:10139C0000B37F93CF9356E07EE0CEE660B36370EC
:1013AC00A1F06795001F5A95C9F7000060B36370F0
:1013BC0061F06795001F57E0099300B3037029F0A3
:1013CC005A9500007A9551F7D7CFC137A8F24091C2
:1013DC006E0030916F0071F43E7F3F1559F4423727
:1013EC0011F491E0C9CF403511F493E0C5CF4E34E0
:1013FC0009F40AC0483211F0463321F49130C1F09F
:10140C009330F1F090E0B8CF2F931F93AF936F927E
:10141C0030916F002091700037952795229530FF01
:10142C0001C020952F702A3059F12530D1F1A0CF71
:10143C002F931F93AF936F92EAD00BD082E098CF8B
:10144C002F931F93AF936F92823041F1E0D0882796
:10145C008FCF573029F05395001F5A95E9F7099310
:10146C007C2F7D56C72ECEE6A1E6BF93BB274991B4
:10147C004D937A95E1F7BF9174E5709360000895F0
:10148C00843061F442FC0AC04DD0EE2049F492E065
:10149C0083E04B2D413009F480E06ACFCAD068CF8D
:1014AC0027C0843019F141FE21C04D2D4093CC0052
:1014BC00482D4093CB004091CD00842E7091CE00EE
:1014CC00CFEC32D04091CC00D42E4091CB00842E66
:1014DC004091D000433C11F043EC01C04BE44093ED
:1014EC00D00041E0442A4DEF442242CFA2D040CF5D
:1014FC00FF2421E018E04F2DE79408F04227479590
:10150C00FF1C1A95C1F7EE242F2D2E7FF22E30CF13
:10151C004AEAF42E99279924882488273324309278
:10152C00E50008957D2DCFEE30E0172F23E0699173
:10153C009198909A899A889A42B357E000006795DF
:10154C0008F0422742BB5A95C9F760FF42271A950B
:10155C00699142BB91F7582D503041F0679508F0D6
:10156C00422742BB00005A95C9F7688100004C7FA6
:10157C0042BB55E05A95F1F7909A909A89988898C1
:10158C00909808954091F0004B3443EC09F04BE4F3
:10159C004093F000089543EC4093F00040E84093F2
:1015AC00EF00F0DF40E04093F1004093F20074E074
:1015BC00089548E0A42E40E84093EF0043EC40939C
:1015CC00F0001A2D7A2DC1EFC895099231967A95B3
:1015DC00D9F772E0710FE0D0739573959394CFEEB9
:1015EC0055D0D72E9924D092CE008092CD007D2D4F
:1015FC00FF27EFEECFEC019009927A95E1F7089571
:10160C0040E84093EC0042ED4093ED000895CF93F9
:10161C005F938F92CCEE72E0882486DF8F905F917F
:10162C00CF91089540E84093E9004AE54093EA00E1
:10163C0008958F92C9EE72E0882476DF8F9008951A
:10164C0040E84093E6004EE14093E70008958F9206
:10165C00C6EE72E0882468DF8F90089540E84093CE
:10166C00EF004EE14093F00072E00895CF937F932A
:10167C007C0F4FEF47954881242F279524272095E1
:10168C002993C717B9F77F91CF9108951127772424
:10169C007A94CF937F93312F48E0340F7A95E9F702
:1016AC0026E07F917F937C0F73957395488158E06A
:1016BC00479508F027E02A95A1F4371526E088F421
:1016CC003A95732E513011F459E0C3955A9590FA0E
:1016DC001EF037D01A9502C01BD013957F91CF9175
:1016EC00D8CF3A9521F05A9519F7C395DFCF7F9152
:1016FC00CF9190FA3EF0103051F07A95185F38F493
:10170C007A950895812E185010F07395812E0895B6
:10171C00452F59E0541B3881331F2FEF220F5A9558
:10172C00E9F732232095269548814223342B4881B2
:10173C00441F3993C71301C008953881331F39935F
:10174C00F9CF452F59E0541B4C2F4395C72F3A9195
:10175C0037953883C413FBCF3A9137952FEF5A95B1
:10176C0011F0220FFCCF3223209548814223342BD9
:10177C0038830895CF937F93C0E603D07F91CF91A8
:10178C0008957C0F488138E04795221F3A95E1F780
:10179C002993C717B9F70895CF937F93CFEE0AD04B
:1017AC004095309539934883CA9572E0EADF7F9172
:1017BC00CF9108957C0FC3954991433C11F04B3464
:1017CC00A9F44FEF3FEF299118E037FB50F952275E
:1017DC00441F331F4E7F2695579520F450E835272C
:1017EC0055E045271A9589F7C71769F70895C895E5
:1017FC00099231967A95D9F757C0C895099233FA60
:10180C0036F43196C8950992E89433F802C0002456
:10181C0009923196725089F747C00080099231962F
:10182C007A95D9F741C00080099233FA36F4319693
:10183C0000800992E89433F802C000240992319692
:10184C00725089F731C0EEBBFFBBE09A0DB2099222
:10185C0031967A95C1F728C0EEBBFFBBE09A0DB26A
:10186C00099233FA4EF43196EEBBFFBBE09A0DB2FF
:10187C000992E89433F802C0002409923196725010
:10188C0059F712C040E84093EF0078E0C1EF3320E5
:10189C0009F4ADCF32FC03C030FCBFCFD4CF30FC49
:1018AC00C2CF31FCD9CFA9CF37FC33246BDEC0EFCC
:1018BC00089506D09394CFEEE9DED72E992408959F
:1018CC0033244091620030916300407609F41BC0D0
:1018DC004034B1F0403209F013C0313059F032309D
:1018EC0051F0333049F0393041F03A3039F03B3077
:1018FC0031F0B7C0B6C0B5C0B4C0B3C0B2C0B1C08F
:10190C00B0C041E020C03030E9F03130D1F033309C
:10191C00C1F0353079F0363029F1373009F13830F3
:10192C00A9F0393051F03A30B9F03B3051F03C303D
:10193C00B9F097C0E090640094C04091640040936B
:10194C00E5008FC042E0FCE1E0E978C04091E500A1
:10195C00FCE1E1E541E072C0FCE1E8E541E06EC08C
:10196C007DDE089540916200413851F03091650060
:10197C00313081F03230A1F03330B1F172C00895C2
:10198C00309165003132B9F0323201F1333251F11C
:10199C0068C00895F3E0E5ED41E0342E42E14EC01D
:1019AC004091A60341FD03C0FCE1ECE402C0FCE164
:1019BC00EEE642E243C04091A60341FD03C0FCE1C8
:1019CC00EEE502C0FCE1E0E849E038C04091A60336
:1019DC0041FD04C0FCE1E2E949E903C0FDE1ECE2B0
:1019EC0049E92CC03EC02AC03CE0332E3091640043
:1019FC003030D9F0313059F0323069F0333019F0E1
:101A0C00343079F02EC0FEE1E4E34AE017C0FDE18A
:101A1C00EAED46E213C0F3E0EDEC4DE0342E4AE083
:101A2C000DC0FEE1EAE34AE309C03324FDE1E6ED33
:101A3C0044E004C0FEE1E8E542E000C0A09068008C
:101A4C00A41608F0A42E4A2DBB24477009F0B394B9
:101A5C004A2D469546954695B40E43EC4093F000BE
:101A6C000BC099DD089502D025DF08954B2D413030
:101A7C0011F494DD0895BA943A2D385018E018F406
:101A8C001A2DBB24B394A32EFDDE72E0710F84DEFD
:101A9C0073957395089500241118001F111F001CD5
:101AAC00111C021A130A20F4020E131E889401C092
:101ABC000894001F111F001C111C021A130A20F499
:101ACC00020E131E889401C00894001F111F001CE5
:101ADC00111C021A130A20F4020E131E889401C062
:101AEC000894001F111F001C111C021A130A20F469
:101AFC00020E131E889401C00894001F111F001CB5
:101B0C00111C021A130A20F4020E131E889401C031
:101B1C000894001F111F001C111C021A130A20F438
:101B2C00020E131E889401C00894001F111F001C84
:101B3C00111C021A130A20F4020E131E889401C001
:101B4C000894001F111F001C111C021A130A20F408
:101B5C00020E131E889401C00894001F111F001C54
:101B6C00111C021A130A20F4020E131E889401C0D1
:101B7C000894001F111F001C111C021A130A20F4D8
:101B8C00020E131E889401C00894001F111F001C24
:101B9C00111C021A130A20F4020E131E889401C0A1
:101BAC000894001F111F001C111C021A130A20F4A8
:101BBC00020E131E889401C00894001F111F001CF4
:101BCC00111C021A130A20F4020E131E889401C071
:101BDC000894001F111F001C111C021A130A20F478
:101BEC00020E131E889401C00894001F111F001CC4
:101BFC00111C021A130A20F4020E131E889401C041
:101C0C000894001F111F001C111C021A130A20F447
:101C1C00020E131E889401C00894001F111F089512
:101C2C00429F8001529F100D349F100D0895120198
:101C3C000001000000080000020003010102030182
:101C4C000902220001010280320904000001030094
:101C5C0000030921010100012299000705810308F5
:101C6C00000A09022200010102803209040000016D
:101C7C0003000003092101010001229900070581DD
:101C8C000308000A0000050115000904A1018501E3
:101C9C0005011901293815002501750195385500E4
:101CAC006500810285020509193929601500250195
:101CBC00750195285500650081020501093935002B
:101CCC00463B011601FE15002507651475049501A8
:101CDC008102090175049501810385030501160034
:101CEC00FE26FF01750A95040930093109320933C2
:101CFC0081020509196129701500250175019510DE
:101D0C00550065008102850405011600FE26FF01C1
:101D1C00750A950409340935093609378102C00062
:101D2C00050115000904A101850105011600FE2617
:101D3C00FF01750A95040930093109320933810212
:101D4C0005091961297015002501750195105500BB
:101D5C0065008102850205011600FE26FF01750A49
:101D6C0095040934093509360937810285030501C3
:101D7C0019012938150025017501953855006500A4
:101D8C0081028504050919392960150025017501A1
:101D9C009528550065008102050109393500463B3F
:101DAC00011601FE150025076514750495018102C5
:101DBC000901750495018103C0000F000201040F95
:101DCC00030F06070F0F050F0F0F0403090026035F
:101DDC007777772E6D696E6461756761732E636FAB
:101DEC006D004D696E646175676173204D696C613E
:101DFC00736175736B617320286329323030352C15
:101E0C0020496E672E2049676F72204365736B6F94
:101E1C002C20436F7079726967687428632932309B
:101E2C0030330A034D4A31360A03312E33003A035C
:101E3C004D4A31362C2041544D6567613136204A6C
:0E1E4C006F79737469636B2076312E33020355
:00000001FF
